:100000003FC159C158C157C156C155C154C153C14F
:1000100052C151C150C14FC1CBC54DC14CC10D1BC7
:100020001111111F0D1B11111F1F0D1B111F1F1F60
:100030000D1B1F1F1F1F0D1F1F1F1F1FAE2000B0F6
:10004000C8001040813FA1A6A83FA4D300D5F0D995
:1000500022DA12DB208D14AF000000000000000047
:10006000002F000000000700070000147F147F1419
:1000700000242A7F2A12006264081323003649559F
:10008000225000000503000000001C224100000077
:1000900041221C000014083E08140008083E08080D
:1000A000000000A060000008080808080000606068
:1000B0000000002010080402003E5149453E0000A7
:1000C000427F4000004261514946002141454B3189
:1000D000001814127F10002745454539003C4A4955
:1000E00049300001710905030036494949360006C7
:1000F0004949291E0000363600000000563600002F
:1001000000081422410000141414141400004122A9
:10011000140800020151090600324959513E007C81
:100120001211127C007F49494936003E414141226B
:10013000007F4141221C007F49494941007F090954
:100140000901003E4149497A007F0808087F000004
:10015000417F4100002040413F01007F08142241BF
:10016000007F40404040007F020C027F007F040877
:10017000107F003E4141413E007F09090906003ED3
:100180004151215E007F09192946004649494931FC
:100190000001017F0101003F4040403F001F20401F
:1001A000201F003F4038403F0063140814630007DD
:1001B0000870080700615149454300007F41410034
:1001C00000552A552A55000041417F0000040201D4
:1001D00002040040404040400000010204000020B2
:1001E00054545478007F48444438003844444420F0
:1001F00000384444487F00385454541800087E099D
:1002000001020018A4A4A47C007F08040478000064
:10021000447D4000004080847D00007F1028440021
:100220000000417F4000007C04180478007C080432
:10023000047800384444443800FC2424241800186E
:10024000242418FC007C080404080048545454205A
:1002500000043F444020003C4040207C001C2040E3
:10026000201C003C4030403C004428102844001C26
:10027000A0A0A07C004464544C441414141414141E
:1002800011241FBECFE5D2E0DEBFCDBF10E0A0E657
:10029000B0E0EAEBF4E102C005900D92AE3AB1078E
:1002A000D9F710E0AEEAB0E001C01D92A83BB1075B
:1002B000E1F767D500C9A4CE0F931F93082F162F1F
:1002C00076D387E760E09DD3812F3FD4802F3DD444
:1002D00083D31F910F9108956AD387E760E091D38C
:1002E00080EE33D464D387E760E08BD386EB2DD4E4
:1002F00073D308952F923F924F925F926F927F92A5
:100300008F929F92AF92BF92CF92DF92EF92FF9225
:100310000F931F93DF93CF93CDB7DEB761970FB6DF
:10032000F894DEBF0FBECDBF42D387E760E069D34C
:1003300087EF0BD43CD387E761E063D380E0BDD384
:100340008F8780E0BAD38E8781E0B7D38D8744D37F
:100350008091AE009091AF00A091B000B091B1003B
:10036000B595A795979587950F2EF0E02F2EF6E07F
:100370003F2EFFEF4F2EFFEF5F2EF02D280E391E80
:100380004A1E5B1EA2019101559547953795279509
:100390005595479537952795CA01B90117D86987AB
:1003A0007A878B879C8781E190E05FD8998B888BD7
:1003B0008FE090E05AD898878F838DE090E055D8F1
:1003C0009E838D838BE090E050D87C0189E090E0A3
:1003D0004CD85C0169857A858B859C85052E5DE00E
:1003E00095958795779567955A95D1F7502D002764
:1003F000F7FC0095102FA8019701E8D77B018C012D
:10040000689412F815950795F794E7941694D1F728
:10041000CC24B7FCC094DC2CC601B501A20191012B
:10042000D5D79595879577956795E60EF71E081FA2
:10043000191F87E090E019D80D2ED2E11595079588
:10044000F794E794DA95D1F7D02D20E030E840E03A
:1004500050E0E20EF31E041F151F9C0140E050E027
:10046000C801B701B3D73B014C01052E5FE095945D
:100470008794779467945A95D1F7502D611471043D
:100480008104910429F420E030E040E050E018C1FC
:100490003F85E32EFF2400E010E0102F0F2DFE2CEF
:1004A000EE244E85842F90E0A0E0B0E0E82AF92AFF
:1004B0000A2B1B2B102F0F2DFE2CEE245D85852F74
:1004C00090E0A0E0B0E0E82AF92A0A2B1B2B69850E
:1004D0007A858B859C85052E5BE09595879577952C
:1004E00067955A95D1F7502DE889F9899F014427DE
:1004F00037FD4095542F6AD75B016C012F813885F9
:10050000B901882777FD8095982FA20191015ED7C8
:10051000660F771F881F991FA60EB71EC81ED91E0B
:10052000D594C794B794A794D594C794B794A79437
:10053000689413F815950795F794E7941694D1F7F6
:1005400010950095F094E094E11CF11C011D111D23
:100550004D815E81CA01AA2797FDA095BA2FDC01C3
:1005600099278827A80EB91ECA1EDB1E092E9CE0FB
:10057000D594C794B794A7949A95D1F7902DEA187B
:10058000FB080C091D09C801B70125E33CE040E068
:1005900050E01CD760507040804B9C4382F0660F47
:1005A000771F881F991FA401930135D7822F932F9E
:1005B000A42FB52F89839A83AB83BC8311C0A40178
:1005C000930129D7822F932FA42FB52F9C01AD0122
:1005D000220F331F441F551F29833A834B835C83AB
:1005E00087E190E042D73C0129803A804B805C80D3
:1005F000689412F856944794379427941694D1F738
:1006000085E190E032D77C0183E190E02ED75C0158
:1006100069817A818B819C8196958795779567957D
:1006200096958795779567950027F7FC0095102F8D
:10063000A8019701CBD67B018C010D2EDDE015952D
:100640000795F794E794DA95D1F7D02DCC24B7FC31
:10065000C094DC2CEA0CFB1C0C1D1D1DC201B10159
:10066000A2019101B3D6052E5DE096958795779509
:1006700067955A95D1F7502D882477FC8094982C53
:10068000A4019301A3D6052E5CE0959587957795F7
:1006900067955A95D1F7502DE60EF71E081F191FC2
:1006A000689413F815950795F794E7941694D1F785
:1006B00029813A814B815C812E0D3F1D401F511FC6
:1006C000622F732F842F952F61960FB6F894DEBF9B
:1006D0000FBECDBFCF91DF911F910F91FF90EF9093
:1006E000DF90CF90BF90AF909F908F907F906F9052
:1006F0005F904F903F902F9008952F923F924F928E
:100700005F926F927F928F929F92AF92BF92CF92A1
:10071000DF92EF92FF920F931F93CF93DF9347D116
:1007200087E760E06ED18AEF10D241D187E761E0C0
:1007300068D180E0C2D1A82EBB24CC24DD24DC2CDF
:10074000CB2CBA2CAA2480E0B8D190E0A0E0B0E095
:10075000A82AB92ACA2ADB2ADC2CCB2CBA2CAA2438
:1007600081E0ABD190E0A0E0B0E0A82AB92ACA2A83
:10077000DB2A32D181E090E078D61C014424552454
:1007800083E090E072D6EC011127D7FC1A950D2D6D
:10079000FC2CEB2CE218F3080409150985E090E025
:1007A00064D63C01C801B701A80197010FD6052EF8
:1007B0005CE095958795779567955A95D1F7502D7B
:1007C000882477FC8094982CA4019301FFD57B01A9
:1007D0008C010D2EDEE015950795F794E794DA95D8
:1007E000D1F7D02D689416F8D594C794B794A794F0
:1007F0001694D1F7220C331C441C551CA218B308C4
:10080000C408D5089E01442737FD4095542FC601E2
:10081000B501DCD5052E5BE09595879577956795B5
:100820005A95D1F7502DE60EF71E081F191FE092BA
:10083000AE00F092AF000093B0001093B100A80199
:100840009701220F331F441F551F220F331F441FD0
:10085000551F2E0D3F1D401F511F20583F4F4F4F1A
:100860005F4F232F342F452F552747FD5A95442797
:1008700037FD4095542F622F732F842F952FDF91D2
:10088000CF911F910F91FF90EF90DF90CF90BF908D
:10089000AF909F908F907F906F905F904F903F9020
:1008A0002F900895AF92BF92CF92DF92EF92FF9276
:1008B0000F931F93DF93CF93CDB7DEB768970FB633
:1008C000F894DEBF0FBECDBF72D087E760E099D04D
:1008D00088E83BD16CD087E761E093D06E01089443
:1008E000C11CD11C76010F2EF9E1AF2EBB24F02DD7
:1008F000AC0EBD1E80E0E1D0182F80E0DED000E01D
:1009000090E0802B912BF7019083818382E090E02F
:10091000E80EF91EEA14FB0469F781E0CED05CD042
:1009200001E010E00F2EFCE3EF2EFF24F02DF60186
:1009300060817181C801ACD50E5F1F4FF7018081C6
:1009400081FDFCCF82E090E0C80ED91E093111056F
:1009500071F768960FB6F894DEBF0FBECDBFCF918A
:10096000DF911F910F91FF90EF90DF90CF90BF909C
:10097000AF900895E7E3F0E080818160808380811B
:1009800084608083E8E3F0E08081816080838081FF
:10099000846080830895E8E3F0E080818460808350
:1009A00081E08A95F1F780818B7F80830895E8E369
:1009B000F0E080818160808380818460808391E029
:1009C000892F8A95F1F780818E7F80839A95F1F740
:1009D00080818B7F80830895E8E3F0E080818B7FC6
:1009E000808380818E7F808391E0892F8A95F1F7C3
:1009F0008081846080839A95F1F780818160808313
:100A00000895EF92FF920F931F93DF93CF9300D03F
:100A1000CDB7DEB789836A838981883008F442C004
:100A20008981893708F03EC007E00F2EF8E3EF2EEA
:100A3000FF24F02D8981880F8983898188232CF4F4
:100A4000F70180818160808304C0F70180818E7FFF
:100A50008083A1DF015071F78A81813031F4E8E3AE
:100A6000F0E080818160808305C0E8E3F0E0808170
:100A70008E7F808390DF0F2EF7E3EF2EFF24F02D83
:100A8000F70180818E7F8083E8E3F0E080818160E0
:100A9000808386B3182F11707EDFF701808181601B
:100AA000808301C012E0812F0F900F90CF91DF91D2
:100AB0001F910F91FF90EF900895DF92EF92FF92B8
:100AC0000F931F93CF93DF93D82EE8E3F0E080815C
:100AD00081608083A7E3B0E08C918E7F8C938081CE
:100AE0008160808318E000E0C8E3D0E00F2EF6E3D9
:100AF000EF2EFF24F02D888184608883F7018081A8
:100B0000902F990F8170092F082B45DF115099F70D
:100B1000E7E3F0E0808181608083F1E0DF1631F46B
:100B2000E8E3F0E080818160808305C0E8E3F0E0E5
:100B300080818E7F80832FDF802FDF91CF911F9167
:100B40000F91FF90EF90DF9008950F931F93CF9335
:100B5000DF93082F18E0C8E3D0E0002324F4888155
:100B60008160888303C088818E7F888314DF115061
:100B700011F0000FF2CFE8E3F0E080818160808324
:100B80000ADFDF91CF911F910F910895E7E2F0E026
:100B900082E08083808180628083E6E2F0E080E80A
:100BA00080838081846080838081826080830895D7
:100BB0001F920F920FB60F9211248F9388E10FB6F8
:100BC000F89481BD11BC0FBE8F910F900FBE0F9096
:100BD0001F90189516B8E4E5F0E08081877F808348
:100BE000E1E4F0E080818861808386E4808378940A
:100BF000A895E5E5F0E08081877E80618083808133
:100C0000806280838895E5E5F0E080818F7D808338
:100C100080E886B908951F93CF93DF93E6E2F0E072
:100C2000808180648083808186FDFDCF89E760E0DC
:100C300004D185B18F3F09F085B185B1853D28F498
:100C400085B1813C10F023E001C024E085B1803CF7
:100C500020F485B18C3A08F022E085B18B3A20F47B
:100C600085B1873908F021E085B1863908F420E0A4
:100C700030E0C901880F991F820F931F880F991FB9
:100C8000EC01C25EDF4F10E0FE018491BCD01F5F1B
:100C900021961630C9F7DF91CF911F91089580E317
:100CA00066E0CBD080E690E03ED18CE367E0C5D033
:100CB00081E790E038D187E767E0BFD086E790E032
:100CC00032D10895EF92FF920F931F9316DD12DB3E
:100CD0007B018C0180E061E0B0D08FE790E023D110
:100CE00030D112D18DE890E01ED180E063E0A5D034
:100CF00080E990E018D161D107D18BE990E013D160
:100D000080E065E09AD08FE990E00DD1C801B7018D
:100D100028EE33E040E050E07ED3822FF5D0C801CA
:100D2000B70128EE33E040E050E075D324E630E030
:100D300040E050E070D3822FE7D08EE2AED0C80101
:100D4000B70124E630E040E050E065D3372F482F6C
:100D5000592F862F932FA42FB52F7C018D018AE068
:100D6000E816F1040105110510F480E396D08E2DEC
:100D7000CBD08AEA90E0D7D01F910F91FF90EF90EF
:100D800008950F931F93CF93DF9388EA91E601971D
:100D9000F1F7E7E3F0E08081806180838FEF88BB2B
:100DA000F5DEE8DDCCE3D0E008E510E0FE0184915B
:100DB00037D02196C017D107C9F780E090E04DD316
:100DC0008F3F29F46FDD80E090E060E053D384DA58
:100DD00084E665EF71DA8FEF64EF6EDA81E820D098
:100DE00080E01ED03FD05BDF20E137E249E150E0F8
:100DF000CA010197F1F721503040D1F733D00BDF12
:100E000061DFE8DEFCCF1F93182FD1DD8CE360E0BB
:100E1000F8DD80E49ADE812F98DEDEDD1F910895F3
:100E20001F93182FC4DD8CE360E0EBDD80E08DDEE6
:100E3000812F8BDED1DD1F9108950F931F93182F03
:100E4000062F81E2EDDF812F8F77EADF8FE7E8DF82
:100E500082E2E6DF802F8770E3DF87E0E1DF1F912A
:100E60000F910895FF920F931F9380E060E0E5DFFC
:100E7000FF2400E010C0802FC6DF1F5F1038D9F7B5
:100E8000F39488E0F81639F480E060E0D6DF1F9133
:100E90000F91FF900895102FEECF1F93CF93DF9304
:100EA000182F8A3089F46091B600683030F46F5F93
:100EB0006093B60080E0C1DF23C081E08093B6007C
:100EC00080E061E0BADF1CC072DD8CE360E099DD98
:100ED00080E43BDE212F205230E0C901880F991FAA
:100EE000820F931F880F991FEC01C85ADF4F10E043
:100EF000FE0184912ADE1F5F21961630C9F76CDD52
:100F0000DF91CF911F910895CF93DF93A5D0EC018E
:100F10008881882329F02196C0DF88818823D9F72A
:100F2000DF91CF910895CF93DF93EC0188818823DF
:100F300029F02196B2DF88818823D9F7DF91CF91FC
:100F40000895EF92FF920F931F9331DD80E460E0EC
:100F500058DD83EFFADD88EA91E60197F1F727DDA6
:100F600080E461E04EDD80E0A8DDF82EEE2481E033
:100F7000A4DD90E0E82AF92A2FDD8CEF9FEFE8222C
:100F8000F92200E010E0C801B70127D120E030E0ED
:100F900040E857E3B0D122E538EB4FE253E4ABD160
:100FA00026E636E64BE352E487D0EBD0DC01CB01FA
:100FB0001F910F91FF90EF900895EF92FF920F9382
:100FC0001F93F5DC80E460E01CDD85EFBEDD88EA80
:100FD00091E60197F1F7EBDC80E461E012DD80E05F
:100FE0006CDDF82EEE2481E068DD90E0E82AF92A35
:100FF000F3DC8CEF9FEFE822F92200E010E0C8015B
:10100000B701EBD020E030E040E857E374D120E0B6
:1010100030E04AEF52E46FD120E030E040EC50E4A1
:101020004BD0AFD0DC01CB011F910F91FF90EF901F
:101030000895AC01662379F020E0DA01A20FB11D1A
:101040009C91FA01E60FF11D80818C9390832F5FB4
:101050006150261790F308950F931F93CF93DF935A
:10106000482F20E030E0C2EBD0E0522FD901FE0142
:10107000E20FF31F842F6AE0C2D1905D90834A3063
:1010800028F4FD01ED54FF4F10820BC05F5F2F5F0E
:101090003F4F2430310529F0842F6AE0B0D1482F2A
:1010A000E4CF02EB10E0C801652FC3DFC801DF9178
:1010B000CF911F910F9108955058BB27AA270ED0AA
:1010C000E0C0D1D030F0D6D020F031F49F3F11F401
:1010D0001EF4C6C00EF4E095E7FBBCC0E92FE2D0D9
:1010E00080F3BA17620773078407950718F071F445
:1010F0009EF5FAC00EF4E0950B2EBA2FA02D0B0131
:10110000B90190010C01CA01A0011124FF27591B4C
:1011100099F0593F50F4503E68F11A16F040A22F52
:10112000232F342F4427585FF3CF469537952795C3
:10113000A795F0405395C9F77EF41F16BA0B620BC2
:10114000730B840BBAF09150A1F0FF0FBB1F661F09
:10115000771F881FC2F70EC0BA0F621F731F841F4C
:1011600048F4879577956795B795F7959E3F08F072
:10117000B3CF9395880F08F09927EE0F9795879531
:10118000089598D088F09F5790F0B92F9927B751BC
:10119000A0F0D1F0660F771F881F991F1AF0BA953B
:1011A000C9F712C0B13081F09FD0B1E008959CC062
:1011B000672F782F8827B85F39F0B93FCCF3869531
:1011C00077956795B395D9F73EF49095809570958E
:1011D00061957F4F8F4F9F4F0895E89409C097FB0B
:1011E0003EF490958095709561957F4F8F4F9F4FFE
:1011F0009923A9F0F92F96E9BB279395F695879542
:1012000077956795B795F111F8CFFAF4BB0F11F404
:1012100060FF1BC06F5F7F4F8F4F9F4F16C08823AB
:1012200011F096E911C0772321F09EE8872F762FE1
:1012300005C0662371F096E8862F70E060E02AF022
:101240009A95660F771F881FDAF7880F969587950E
:1012500097F9089597F99F6780E870E060E0089536
:101260009FEF80EC089500240A94161617061806BE
:101270000906089500240A9412161306140605069A
:101280000895092E0394000C11F4882352F0BB0F2B
:1012900040F4BF2B11F460FF04C06F5F7F4F8F4F8E
:1012A0009F4F089557FD9058440F551F59F05F3FC9
:1012B00071F04795880F97FB991F61F09F3F79F078
:1012C00087950895121613061406551FF2CF4695FA
:1012D000F1DF08C0161617061806991FF1CF86957C
:1012E0007105610508940895E894BB276627772760
:1012F000CB0197F908950AD0C4CFB5DF28F0BADF43
:1013000018F0952309F0A6CFABCFEFCFCBDFA8F332
:101310009923D9F35523C9F3950F50E0551FAA27F8
:10132000EE27FF27BB2700240894679520F4E20FDF
:10133000F31FB41F0A1E220F331F441FAA1F6695F6
:10134000A9F7779530F4F30FB41F0A1E121E08F4A4
:101350006395330F441FAA1F221F769599F787952F
:1013600020F4B40F0A1E121E631F440FAA1F221F6F
:10137000331F8695A9F7862F712D602D11249F5755
:1013800050408AF0E1F088234AF0EE0FFF1FBB1FA8
:10139000661F771F881F91505040A9F79E3F510547
:1013A00070F058CFA2CF5F3FECF3983EDCF3869508
:1013B00077956795B795F795E7959F5FC1F7FE2BF2
:1013C000880F911D9695879597F90895FF27EE2729
:1013D000BB27AA2760FF04C0A20FB31FE41FF51F9D
:1013E000220F331F441F551F969587957795679554
:1013F00089F70097760771F7CF01BD010895991B12
:1014000079E004C0991F961708F0961B881F7A95FB
:10141000C9F780950895A1E21A2EAA1BBB1BFD01F6
:101420000DC0AA1FBB1FEE1FFF1FA217B307E407C3
:10143000F50720F0A21BB30BE40BF50B661F771F1B
:10144000881F991F1A9469F76095709580959095FB
:101450009B01AC01BD01CF010895E199FECF9FBB77
:101460008EBBE09A99278DB30895A8E1B0E042E0E1
:1014700050E013C0262FE199FECF1CBA9FBB8EBB54
:101480002DBB0FB6F894E29AE19A0FBE019608952B
:10149000F1DF272FF0CFDC01CB01FC01E199FECF7A
:1014A00006C0FFBBEEBBE09A31960DB20D924150E3
:0A14B0005040B8F70895F894FFCFFC
:1014BA004D6174746865772057686974656C6579DD
:1014CA0000312E30310031392E31302E313800546E
:1014DA00656D70657261747572653A20002A430001
:1014EA0048756D69646974793A200025524800503C
:0E14FA00726573737572653A20004850610088
:00000001FF
