S01E000068616E6468656C645765617468657253746174696F6E2E737265631C
S11300003FC159C158C157C156C155C154C153C14B
S113001052C151C150C14FC14EC14DC14CC10D1B44
S11300201111111F0D1B11111F1F0D1B111F1F1F5C
S11300300D1B1F1F1F1F0D1F1F1F1F1FAE2000B0F2
S1130040C8001040813FA1A6A83FA4D300D5F0D991
S113005022DA12DB208D14AF000000000000000043
S1130060002F000000000700070000147F147F1415
S113007000242A7F2A12006264081323003649559B
S1130080225000000503000000001C224100000073
S113009041221C000014083E08140008083E080809
S11300A0000000A060000008080808080000606064
S11300B00000002010080402003E5149453E0000A3
S11300C0427F4000004261514946002141454B3185
S11300D0001814127F10002745454539003C4A4951
S11300E049300001710905030036494949360006C3
S11300F04949291E0000363600000000563600002B
S113010000081422410000141414141400004122A5
S1130110140800020151090600324959513E007C7D
S11301201211127C007F49494936003E4141412267
S1130130007F4141221C007F49494941007F090950
S11301400901003E4149497A007F0808087F000000
S1130150417F4100002040413F01007F08142241BB
S1130160007F40404040007F020C027F007F040873
S1130170107F003E4141413E007F09090906003ECF
S11301804151215E007F09192946004649494931F8
S11301900001017F0101003F4040403F001F20401B
S11301A0201F003F4038403F0063140814630007D9
S11301B00870080700615149454300007F41410030
S11301C000552A552A55000041417F0000040201D0
S11301D002040040404040400000010204000020AE
S11301E054545478007F48444438003844444420EC
S11301F000384444487F00385454541800087E0999
S113020001020018A4A4A47C007F08040478000060
S1130210447D4000004080847D00007F102844001D
S11302200000417F4000007C04180478007C08042E
S1130230047800384444443800FC2424241800186A
S1130240242418FC007C0804040800485454542056
S113025000043F444020003C4040207C001C2040DF
S1130260201C003C4030403C004428102844001C22
S1130270A0A0A07C004464544C441414141414141A
S113028011241FBECFE5D2E0DEBFCDBF10E0A0E653
S1130290B0E0E6E0F0E102C005900D92A039B107AC
S11302A0D9F710E0A0E9B0E001C01D92AA39B10766
S11302B0E1F71DD5A6C6A4CE0F931F93082F162FC2
S11302C076D387E760E09DD3812F3FD4802F3DD440
S11302D083D31F910F9108956AD387E760E091D388
S11302E080EE33D464D387E760E08BD386EB2DD4E0
S11302F073D308952F923F924F925F926F927F92A1
S11303008F929F92AF92BF92CF92DF92EF92FF9221
S11303100F931F93DF93CF93CDB7DEB761970FB6DB
S1130320F894DEBF0FBECDBF42D387E760E069D348
S113033087EF0BD43CD387E761E063D380E0BDD380
S11303408F8780E0BAD38E8781E0B7D38D8744D37B
S11303508091900090919100A0919200B0919300AF
S1130360B595A795979587950F2EF0E02F2EF6E07B
S11303703F2EFFEF4F2EFFEF5F2EF02D280E391E7C
S11303804A1E5B1EA2019101559547953795279505
S11303905595479537952795CA01B901BDD5698704
S11303A07A878B879C8781E190E005D6998B888B2F
S11303B08FE090E000D698878F838DE090E0FBD5A6
S11303C09E838D838BE090E0F6D57C0189E090E0FC
S11303D0F2D55C0169857A858B859C85052E5DE067
S11303E095958795779567955A95D1F7502D002760
S11303F0F7FC0095102FA80197018ED57B018C0185
S1130400689412F815950795F794E7941694D1F724
S1130410CC24B7FCC094DC2CC601B501A201910127
S11304207BD59595879577956795E60EF71E081FFA
S1130430191F87E090E0BFD50D2ED2E115950795E1
S1130440F794E794DA95D1F7D02D20E030E840E036
S113045050E0E20EF31E041F151F9C0140E050E023
S1130460C801B70159D53B014C01052E5FE09594B5
S11304708794779467945A95D1F7502D6114710439
S11304808104910429F420E030E040E050E018C1F8
S11304903F85E32EFF2400E010E0102F0F2DFE2CEB
S11304A0EE244E85842F90E0A0E0B0E0E82AF92AFB
S11304B00A2B1B2B102F0F2DFE2CEE245D85852F70
S11304C090E0A0E0B0E0E82AF92A0A2B1B2B69850A
S11304D07A858B859C85052E5BE095958795779528
S11304E067955A95D1F7502DE889F9899F014427DA
S11304F037FD4095542F10D55B016C012F81388551
S1130500B901882777FD8095982FA201910104D520
S1130510660F771F881F991FA60EB71EC81ED91E07
S1130520D594C794B794A794D594C794B794A79433
S1130530689413F815950795F794E7941694D1F7F2
S113054010950095F094E094E11CF11C011D111D1F
S11305504D815E81CA01AA2797FDA095BA2FDC01BF
S113056099278827A80EB91ECA1EDB1E092E9CE0F7
S1130570D594C794B794A7949A95D1F7902DEA1877
S1130580FB080C091D09C801B70125E33CE040E064
S113059050E0C2D460507040804B9C4382F0660FA0
S11305A0771F881F991FA4019301DBD4822F932FF7
S11305B0A42FB52F89839A83AB83BC8311C0A40174
S11305C09301CFD4822F932FA42FB52F9C01AD017B
S11305D0220F331F441F551F29833A834B835C83A7
S11305E087E190E0E8D43C0129803A804B805C802C
S11305F0689412F856944794379427941694D1F734
S113060085E190E0D8D47C0183E190E0D4D45C010E
S113061069817A818B819C81969587957795679579
S113062096958795779567950027F7FC0095102F89
S1130630A801970171D47B018C010D2EDDE0159585
S11306400795F794E794DA95D1F7D02DCC24B7FC2D
S1130650C094DC2CEA0CFB1C0C1D1D1DC201B10155
S1130660A201910159D4052E5DE096958795779561
S113067067955A95D1F7502D882477FC8094982C4F
S1130680A401930149D4052E5CE09595879577954F
S113069067955A95D1F7502DE60EF71E081F191FBE
S11306A0689413F815950795F794E7941694D1F781
S11306B029813A814B815C812E0D3F1D401F511FC2
S11306C0622F732F842F952F61960FB6F894DEBF97
S11306D00FBECDBFCF91DF911F910F91FF90EF908F
S11306E0DF90CF90BF90AF909F908F907F906F904E
S11306F05F904F903F902F9008952F923F924F928A
S11307005F926F927F928F929F92AF92BF92CF929D
S1130710DF92EF92FF920F931F93CF93DF9347D112
S113072087E760E06ED18AEF10D241D187E761E0BC
S113073068D180E0C2D1A82EBB24CC24DD24DC2CDB
S1130740CB2CBA2CAA2480E0B8D190E0A0E0B0E091
S1130750A82AB92ACA2ADB2ADC2CCB2CBA2CAA2434
S113076081E0ABD190E0A0E0B0E0A82AB92ACA2A7F
S1130770DB2A32D181E090E01ED41C0144245524AC
S113078083E090E018D4EC011127D7FC1A950D2DC5
S1130790FC2CEB2CE218F3080409150985E090E021
S11307A00AD43C01C801B701A8019701B5D3052EAD
S11307B05CE095958795779567955A95D1F7502D77
S11307C0882477FC8094982CA4019301A5D37B0101
S11307D08C010D2EDEE015950795F794E794DA95D4
S11307E0D1F7D02D689416F8D594C794B794A794EC
S11307F01694D1F7220C331C441C551CA218B308C0
S1130800C408D5089E01442737FD4095542FC601DE
S1130810B50182D3052E5BE095958795779567950D
S11308205A95D1F7502DE60EF71E081F191FE092B6
S11308309000F09291000093920010939300A8010D
S11308409701220F331F441F551F220F331F441FCC
S1130850551F2E0D3F1D401F511F20583F4F4F4F16
S11308605F4F232F342F452F552747FD5A95442793
S113087037FD4095542F622F732F842F952FDF91CE
S1130880CF911F910F91FF90EF90DF90CF90BF9089
S1130890AF909F908F907F906F905F904F903F901C
S11308A02F900895AF92BF92CF92DF92EF92FF9272
S11308B00F931F93DF93CF93CDB7DEB768970FB62F
S11308C0F894DEBF0FBECDBF72D087E760E099D049
S11308D088E83BD16CD087E761E093D06E0108943F
S11308E0C11CD11C76010F2EF9E1AF2EBB24F02DD3
S11308F0AC0EBD1E80E0E1D0182F80E0DED000E019
S113090090E0802B912BF7019083818382E090E02B
S1130910E80EF91EEA14FB0469F781E0CED05CD03E
S113092001E010E00F2EFCE3EF2EFF24F02DF60182
S113093060817181C80152D30E5F1F4FF70180811E
S113094081FDFCCF82E090E0C80ED91E093111056B
S113095071F768960FB6F894DEBF0FBECDBFCF9186
S1130960DF911F910F91FF90EF90DF90CF90BF9098
S1130970AF900895E7E3F0E0808181608083808117
S113098084608083E8E3F0E08081816080838081FB
S1130990846080830895E8E3F0E08081846080834C
S11309A083E08A95F1F780818B7F80830895E8E363
S11309B0F0E080818160808380818460808393E023
S11309C0892F8A95F1F780818E7F80839A95F1F73C
S11309D080818B7F80830895E8E3F0E080818B7FC2
S11309E0808380818E7F808393E0892F8A95F1F7BD
S11309F08081846080839A95F1F78081816080830F
S1130A000895EF92FF920F931F93DF93CF9300D03B
S1130A10CDB7DEB789836A838981883008F442C000
S1130A208981893708F03EC007E00F2EF8E3EF2EE6
S1130A30FF24F02D8981880F8983898188232CF4F0
S1130A40F70180818160808304C0F70180818E7FFB
S1130A508083A1DF015071F78A81813031F4E8E3AA
S1130A60F0E080818160808305C0E8E3F0E080816C
S1130A708E7F808390DF0F2EF7E3EF2EFF24F02D7F
S1130A80F70180818E7F8083E8E3F0E080818160DC
S1130A90808386B3182F11707EDFF7018081816017
S1130AA0808301C012E0812F0F900F90CF91DF91CE
S1130AB01F910F91FF90EF900895DF92EF92FF92B4
S1130AC00F931F93CF93DF93D82EE8E3F0E0808158
S1130AD081608083A7E3B0E08C918E7F8C938081CA
S1130AE08160808318E000E0C8E3D0E00F2EF6E3D5
S1130AF0EF2EFF24F02D888184608883F7018081A4
S1130B00902F990F8170092F082B45DF115099F709
S1130B10E7E3F0E0808181608083F1E0DF1631F467
S1130B20E8E3F0E080818160808305C0E8E3F0E0E1
S1130B3080818E7F80832FDF802FDF91CF911F9163
S1130B400F91FF90EF90DF9008950F931F93CF9331
S1130B50DF93082F18E0C8E3D0E0002324F4888151
S1130B608160888303C088818E7F888314DF11505D
S1130B7011F0000FF2CFE8E3F0E080818160808320
S1130B800ADFDF91CF911F910F910895E7E2F0E022
S1130B9082E08083808180628083E6E2F0E080E806
S1130BA080838081846080838081826080830895D3
S1130BB01F93CF93DF93E6E2F0E08081806480832B
S1130BC0808186FDFDCF89E760E0E1D085B18F3F6C
S1130BD009F085B185B1853D28F485B1813C10F0DB
S1130BE023E001C024E085B1803C20F485B18C3A37
S1130BF008F022E085B18B3A20F485B1873908F0FA
S1130C0021E085B1863908F420E030E0C901880F7D
S1130C10991F820F931F880F991FEC01C25EDF4F4B
S1130C2010E0FE01849199D01F5F21961630C9F718
S1130C30DF91CF911F910895EF92FF920F931F932D
S1130C405CDD58DB7B018C0180E061E0A0D080E6B4
S1130C5090E011D18EE690E00ED180E063E097D071
S1130C6081E790E008D18CE790E005D180E065E071
S1130C708ED080E890E0FFD0C801B70128EE33E0C1
S1130C8040E050E06ED1822FE7D0C801B70128EED2
S1130C9033E040E050E065D124E630E040E050E04D
S1130CA060D1822FD9D08EE2A0D0C801B70124E64A
S1130CB030E040E050E055D1372F482F592F862F90
S1130CC0932FA42FB52F7C018D018AE0E816F1043F
S1130CD00105110510F480E388D08E2DBDD08BE87A
S1130CE090E0C9D01F910F91FF90EF9008950F935A
S1130CF01F93CF93DF93E7E3F0E0808180618083EB
S1130D0045DF38DECCE3D0E008E510E0FE01849155
S1130D1031D02196C017D107C9F780E090E043D1C4
S1130D208F3F29F4BFDD80E090E060E049D1D4DA60
S1130D3084E665EFC1DA8FEF64EFBEDA3BD000E101
S1130D4017E2C9E1D0E034DF77DF9801CE010197E3
S1130D50F1F721503040D1F7F6CF1F93182F27DE3B
S1130D608CE360E04EDE80E4F0DE812FEEDE34DEE4
S1130D701F9108951F93182F1ADE8CE360E041DE63
S1130D8080E0E3DE812FE1DE27DE1F9108950F93DB
S1130D901F93182F062F81E2EDDF812FEBDF8FE702
S1130DA0E9DF82E2E7DF802FE5DF87E0E3DF1F9101
S1130DB00F910895FF920F931F9380E060E0E7DFA7
S1130DC0FF2400E010C0802FC8DF1F5F1038D9F760
S1130DD0F39488E0F81639F480E060E0D8DF1F91DE
S1130DE00F91FF900895102FEECF1F93CF93DF93B1
S1130DF0182F8A3089F460919800683030F46F5F5E
S1130E006093980080E0C3DF23C081E08093980062
S1130E1080E061E0BCDF1CC0CADD8CE360E0F1DD92
S1130E2080E493DE212F205230E0C901880F991FFE
S1130E30820F931F880F991FEC01C85ADF4F10E0EF
S1130E40FE01849182DE1F5F21961630C9F7C4DD4E
S1130E50DF91CF911F910895CF93DF932DD0EC01B3
S1130E608881882329F02196C0DF88818823D9F7D7
S1130E70DF91CF910895CF93DF93EC01888188238C
S1130E8029F02196B2DF88818823D9F7DF91CF91A9
S1130E900895AC01662379F020E0DA01A20FB11DB8
S1130EA09C91FA01E60FF11D80818C9390832F5F52
S1130EB06150261790F308950F931F93CF93DF93F8
S1130EC0482F20E030E0C4E9D0E0522FD901FE01E0
S1130ED0E20FF31F842F6AE038D0905D90834A308C
S1130EE028F4FD01EB56FF4F10820BC05F5F2F5FAC
S1130EF03F4F2430310529F0842F6AE026D0482F53
S1130F00E4CF04E910E0C801652FC3DFC801DF9115
S1130F10CF911F910F910895FF27EE27BB27AA2792
S1130F2060FF04C0A20FB31FE41FF51F220F331F7D
S1130F30441F551F969587957795679589F7009770
S1130F40760771F7CF01BD010895991B79E004C0BC
S1130F50991F961708F0961B881F7A95C9F78095F4
S1130F600895A1E21A2EAA1BBB1BFD010DC0AA1FE6
S1130F70BB1FEE1FFF1FA217B307E407F50720F0FE
S1130F80A21BB30BE40BF50B661F771F881F991F79
S1130F901A9469F760957095809590959B01AC01C2
S1130FA0BD01CF010895E199FECF9FBB8EBBE09AAE
S1130FB099278DB30895A8E1B0E042E050E013C052
S1130FC0262FE199FECF1CBA9FBB8EBB2DBB0FB65B
S1130FD0F894E29AE19A0FBE01960895F1DF272F63
S1130FE0F0CFDC01CB01FC01E199FECF06C0FFBBD1
S1130FF0EEBBE09A31960DB20D9241505040B8F7D5
S10910000895F894FFCFEF
S113100654656D70657261747572653A20002A4381
S11310160048756D69646974793A20002552480060
S113102650726573737572653A200048506100000A
S9030000FC
