S01E000068616E6468656C645765617468657253746174696F6E2E737265631C
S113000030C14AC149C148C147C146C145C144C1C3
S113001043C142C141C140C13FC13EC13DC1AE2007
S113002000B0C8001040813FA1A6A83FA4D300D5CA
S1130030F0D922DA12DB208D14AF0000000000009A
S11300400000002F000000000700070000147F14C8
S11300507F1400242A7F2A120062640813230036C6
S11300604955225000000503000000001C224100F5
S1130070000041221C000014083E08140008083E39
S11300800808000000A06000000808080808000034
S113009060600000002010080402003E5149453E03
S11300A00000427F40000042615149460021414521
S11300B04B31001814127F10002745454539003C88
S11300C04A49493000017109050300364949493656
S11300D000064949291E0000363600000000563645
S11300E00000000814224100001414141414000029
S11300F04122140800020151090600324959513EB7
S1130100007C1211127C007F49494936003E41416E
S11301104122007F4141221C007F49494941007F1F
S113012009090901003E4149497A007F0808087F0E
S11301300000417F4100002040413F01007F08143E
S11301402241007F40404040007F020C027F007F3C
S11301500408107F003E4141413E007F0909090621
S1130160003E4151215E007F091929460046494954
S113017049310001017F0101003F4040403F001F21
S11301802040201F003F4038403F006314081463A0
S113019000070870080700615149454300007F418A
S11301A0410000552A552A55000041417F000004B2
S11301B002010204004040404040000001020400EB
S11301C0002054545478007F484444380038444450
S11301D0442000384444487F0038545454180008DC
S11301E07E0901020018A4A4A47C007F08040478FA
S11301F00000447D4000004080847D00007F102882
S113020044000000417F4000007C04180478007C16
S11302100804047800384444443800FC2424241896
S11302200018242418FC007C0804040800485454D2
S1130230542000043F444020003C4040207C001CEB
S11302402040201C003C4030403C004428102844FE
S1130250001CA0A0A07C004464544C441414141446
S1130260141411241FBECFE5D2E0DEBFCDBF10E0D1
S1130270A0E6B0E0ECECFEE002C005900D92AC37D5
S1130280B107D9F710E0ACE7B0E001C01D92A23984
S1130290B107E1F742D418C6B3CE2F923F924F92E2
S11302A05F926F927F928F929F92AF92BF92CF9202
S11302B0DF92EF92FF920F931F93DF93CF9300D0BF
S11302C00F92CDB7DEB720D387E760E047D387EF3F
S11302D0E9D31AD387E761E041D380E09BD38B83D2
S11302E080E098D38A8381E095D3898322D3809157
S11302F07C0090917D00A0917E00B0917F00B59527
S1130300A795979587950F2EF0E06F2EF6E07F2E38
S1130310FFEF8F2EFFEF9F2EF02D680E791E8A1EA1
S11303209B1EA4019301559547953795279555959F
S1130330479537952795CA01B9014ED55B016C01E4
S1130340052E5DE095958795779567955A95D1F734
S1130350502D20ED3BE040E050E03ED57B018C0188
S1130360689412F815950795F794E7941694D1F7C5
S1130370C401B30127E736ED4FEF5FEF2DD5959517
S1130380879577956795E60EF71E081F191F0D2EA2
S1130390D2E115950795F794E794DA95D1F7D02D26
S11303A0C801B7012BE238E940E050E015D56050B0
S11303B070488A4E934B1B012C01012E1FE055946B
S11303C04794379427941A95D1F7102D21143104AA
S11303D04104510429F420E030E040E050E0EEC054
S11303E02B81E22EFF2400E010E0102F0F2DFE2CB5
S11303F0EE24EA818E2F90E0A0E0B0E0E82AF92A0A
S11304000A2B1B2B102F0F2DFE2CEE24F9818F2F7E
S113041090E0A0E0B0E0E82AF92A0A2B1B2BC601E1
S1130420B501052E5BE095958795779567955A9567
S1130430D1F7502D29EF3FEF4FEF5FEFCDD45B01A4
S11304406C01C401B30126E730E040E050E0C4D4BD
S1130450660F771F881F991FA60EB71EC81ED91EC8
S1130460D594C794B794A794D594C794B794A794F4
S1130470689413F815950795F794E7941694D1F7B3
S113048010950095F094E094E11CF11C011D111DE0
S113049080E090E0A4EBB9E0A80EB91ECA1EDB1EF2
S11304A0092E9CE0D594C794B794A7949A95D1F754
S11304B0902DEA18FB080C091D09C801B70125E3B2
S11304C03CE040E050E088D460507040804B9C4356
S11304D072F0660F771F881F991FA2019101A1D4A2
S11304E0822F932FA42FB52F3C014D010DC0A201E3
S11304F0910197D4822F932FA42FB52F3C014D0146
S1130500660C771C881C991C64015301689412F8CA
S1130510D694C794B794A7941694D1F7C401B301A1
S11305209695879577956795969587957795679529
S113053028EF36EC4FEF5FEF4FD47B018C010D2E8B
S1130540DDE015950795F794E794DA95D1F7D02D6A
S11305508CE89CE3A0E0B0E0E80EF91E0A1F1B1F24
S1130560C601B501A601950137D4052E5DE0969527
S11305708795779567955A95D1F7502D20E737E100
S113058040E050E029D4052E5CE095958795779559
S113059067955A95D1F7502DE60EF71E081F191FBF
S11305A0689413F815950795F794E7941694D1F782
S11305B0A8019701260D371D481D591D622F732F61
S11305C0842F952F0F900F900F90CF91DF911F9153
S11305D00F91FF90EF90DF90CF90BF90AF909F90DE
S11305E08F907F906F905F904F903F902F900895E1
S11305F0AF92BF92CF92DF92EF92FF920F931F932D
S113060083D187E760E0AAD18AEF4CD27DD187E716
S113061061E0A4D180E0FED190E0A0E0B0E0BA2F88
S1130620A92F982F88278093880090938900A093FE
S11306308A00B0938B0080E0EDD190E0A0E0B0E0C0
S1130640209188003091890040918A0050918B005C
S1130650822B932BA42BB52BBA2FA92F982F882745
S11306608093880090938900A0938A00B0938B00B4
S113067081E0D0D190E0A0E0B0E0209188003091FA
S1130680890040918A0050918B00282B392B4A2BEA
S11306905B2B209388003093890040938A00509309
S11306A08B0047D1E0908800F090890000918A0087
S11306B010918B00D801C701689413F8B595A795DC
S11306C0979587951694D1F7809388009093890025
S11306D0A0938A00B0938B00C801B701689416F800
S11306E095958795779567951694D1F721E037E628
S11306F040E050E071D35B016C018CE99EEEA3E213
S1130700BAEAA80EB91ECA1EDB1E092E9BE0D594B8
S1130710C794B794A7949A95D1F7902DA09284008A
S1130720B0928500C0928600D0928700EF2CF02E04
S1130730012F112707FD1A958EE495E9AFEFBFEF5E
S1130740E80EF91E0A1F1B1FC801B701A801970173
S113075043D3052E5CE095958795779567955A95D3
S1130760D1F7502D28E13CEF4FEF5FEF35D3052E45
S11307705EE095958795779567955A95D1F7502DB5
S11307806093800070938100809382009093830033
S11307906A0D7B1D8C1D9D1D60937C0070937D00F4
S11307A080937E0090937F009B01AC01220F331F46
S11307B0441F551F220F331F441F551F260F371F79
S11307C0481F591F20583F4F4F4F5F4F232F342F3F
S11307D0452F552747FD5A95442737FD4095542FFB
S11307E0622F732F842F952F1F910F91FF90EF90FD
S11307F0DF90CF90BF90AF9008950F931F93082F71
S1130800162F82D087E760E0A9D0812F4BD1802FAB
S113081049D18FD01F910F91089576D087E760E07A
S11308209DD080EE3FD170D087E760E097D086EB13
S113083039D17FD00895EF92FF920F931F93DF93E6
S1130840CF93CDB7DEB768970FB6F894DEBF0FBE6F
S1130850CDBF5AD087E760E081D088E823D154D057
S113086087E761E07BD08E010F5F1F4F0F2EF9E108
S1130870EF2EFF24F02DEC0EFD1E80E0CBD0F8010E
S113088081938F01EE15FF05C1F781E0C3D08A8FF4
S113089050D001E010E07E010894E11CF11CF70146
S11308A0E00FF11FC801608101D30F5F1F4F0831B2
S11308B01105A9F768960FB6F894DEBF0FBECDBF39
S11308C0CF91DF911F910F91FF90EF900895E7E38F
S11308D0F0E0808181608083808184608083E8E3AC
S11308E0F0E08081816080838081846080830895CA
S11308F0E8E3F0E080818460808383E08A95F1F707
S113090080818B7F80830895E8E3F0E080818160BB
S1130910808380818460808393E0892F8A95F1F7B6
S113092080818E7F80839A95F1F780818B7F80838D
S11309300895E8E3F0E080818B7F808380818E7F5F
S1130940808393E0892F8A95F1F780818460808386
S11309509A95F1F78081816080830895EF92FF92E8
S11309600F931F93DF93CF9300D0CDB7DEB7898366
S11309706A838981883008F442C08981893708F004
S11309803EC007E00F2EF8E3EF2EFF24F02D8981FF
S1130990880F8983898188232CF4F7018081816001
S11309A0808304C0F70180818E7F8083A1DF0150A2
S11309B071F78A81813031F4E8E3F0E0808181606D
S11309C0808305C0E8E3F0E080818E7F808390DF40
S11309D00F2EF7E3EF2EFF24F02DF70180818E7F99
S11309E08083E8E3F0E080818160808386B3182F00
S11309F011707EDFF70180818160808301C012E085
S1130A00812F0F900F90CF91DF911F910F91FF9045
S1130A10EF900895DF92EF92FF920F931F93CF937D
S1130A20DF93D82EE8E3F0E0808181608083A7E340
S1130A30B0E08C918E7F8C9380818160808318E0FC
S1130A4000E0C8E3D0E00F2EF6E3EF2EFF24F02DF4
S1130A50888184608883F7018081902F990F817049
S1130A60092F082B45DF115099F7E7E3F0E0808167
S1130A7081608083F1E0DF1631F4E8E3F0E0808107
S1130A808160808305C0E8E3F0E080818E7F80830D
S1130A902FDF802FDF91CF911F910F91FF90EF9067
S1130AA0DF9008950F931F93CF93DF93082F18E0DF
S1130AB0C8E3D0E0002324F488818160888303C0E4
S1130AC088818E7F888314DF115011F0000FF2CFDC
S1130AD0E8E3F0E08081816080830ADFDF91CF91D9
S1130AE01F910F910895E8E3F0E080818061808395
S1130AF020E533ECC9010197F1F780818F7E808373
S1130B00C9010197F1F7808180618083C901019750
S1130B10F1F780818F7E80830895CF92DF92EF92E8
S1130B20FF920F931F93CF93DF93E7E3F0E080816D
S1130B3080618083CCDED7DF80E690E0F9D0CEE11F
S1130B40D0E00AE310E0FE01849171D02196C01731
S1130B50D107C9F780E090E0A1D18F3F29F46BDE83
S1130B6080E090E060E0A2D182D080E060E06CD0D0
S1130B7054DE84E665EF41DE8FEF64EF3EDE0F2E38
S1130B80F2E6CF2EF0E0DF2EF02DC0E7D0E085DBDB
S1130B907B018C0180E060E057D0C601C9D028DD1C
S1130BA024E630E040E050E05ED1822FB2D08EE205
S1130BB079D01EDD24E630E040E050E054D1862FA9
S1130BC0A8D080E062E040D0CE01B2D0C801B70125
S1130BD028EE33E040E050E024D1822F9AD0C801BF
S1130BE0B70128EE33E040E050E01BD124E630E0CA
S1130BF040E050E016D1822F8CD08EE253D0C80151
S1130C00B70124E630E040E050E00BD1862F81D0DC
S1130C106ADFBDCF1F93182F77DE8CE360E09EDE82
S1130C2080E440DF812F3EDF84DE1F9108951F930F
S1130C30182F6ADE8CE360E091DE80E033DF812FE1
S1130C4031DF77DE1F9108950F931F93182F062F1E
S1130C5081E2EDDF812FEBDF8FE7E9DF82E2E7DF7F
S1130C60802FE5DF87E0E3DF1F910F910895FF9266
S1130C700F931F9380E060E0E7DFFF2400E010C0E3
S1130C80802FC8DF1F5F1038D9F7F39488E0F81677
S1130C9039F480E060E0D8DF1F910F91FF90089550
S1130CA0102FEECF1F93CF93DF93182F8A3089F440
S1130CB060919000683030F46F5F6093900080E042
S1130CC0C3DF23C081E08093900080E061E0BCDF5B
S1130CD01CC01ADE8CE360E041DE80E4E3DE212FF9
S1130CE0205230E0C901880F991F820F931F880F8B
S1130CF0991FEC01C65CDF4F10E0FE018491D2DE47
S1130D001F5F21961630C9F714DEDF91CF911F9132
S1130D100895CF93DF9330D0EC018881882329F0A4
S1130D202196C0DF88818823D9F7DF91CF91089578
S1130D30CF93DF93EC018881882329F02196B2DFD9
S1130D4088818823D9F780919100ACDFDF91CF911E
S1130D500895AC01662379F020E0DA01A20FB11DF9
S1130D609C91FA01E60FF11D80818C9390832F5F93
S1130D706150261790F308950F931F93CF93DF9339
S1130D80482F20E030E0CCE8D0E0522FD901FE011A
S1130D90E20FF31F842F6AE038D0905D90834A30CD
S1130DA028F4FD01E357FF4F10820BC05F5F2F5FF4
S1130DB03F4F2430310529F0842F6AE026D0482F94
S1130DC0E4CF0CE810E0C801652FC3DFC801DF9150
S1130DD0CF911F910F910895FF27EE27BB27AA27D4
S1130DE060FF04C0A20FB31FE41FF51F220F331FBF
S1130DF0441F551F969587957795679589F70097B2
S1130E00760771F7CF01BD010895991B79E004C0FD
S1130E10991F961708F0961B881F7A95C9F7809535
S1130E200895A1E21A2EAA1BBB1BFD010DC0AA1F27
S1130E30BB1FEE1FFF1FA217B307E407F50720F03F
S1130E40A21BB30BE40BF50B661F771F881F991FBA
S1130E501A9469F760957095809590959B01AC0103
S1130E60BD01CF01089597FB092E05260ED057FD2D
S1130E7004D0D7DF0AD0001C38F450954095309543
S1130E8021953F4F4F4F5F4F0895F6F7909580950A
S1130E90709561957F4F8F4F9F4F0895E199FECFD5
S1130EA09FBB8EBBE09A99278DB30895262FE199B5
S1130EB0FECF1CBA9FBB8EBB2DBB0FB6F894E29A33
S10F0EC0E19A0FBE01960895F894FFCF4C
S1130ECC0A0054656D70657261747572653A200020
S10F0EDC50726573737572653A20000053
S9030000FC
