S01E000068616E6468656C645765617468657253746174696F6E2E737265631C
S1130000BCC1D6C1D5C1D4C1D3C1D2C1D1C1D0C163
S1130010CFC1CEC1CDC1CCC172C6CAC1C9C1004015
S11300207A10F35A00A0724E18090010A5D4E80003
S113003000E87648170000E40B54020000CA9A3B1B
S1130040000000E1F50500008096980000004042A1
S11300500F000000A086010000001027000000002F
S1130060E803000000006400000000000A00000033
S113007000000100000000002C76D888DC674F08DF
S113008023DFC1DFAE59E1B1B796E5E3E453C63AE5
S1130090E651997696E8E6C28426EB898C9B62ED5C
S11300A0407C6FFCEFBC9C9F40F2BAA56FA5F49016
S11300B0055A2AF75C936B6CF9676DC11BFCE0E48D
S11300C00D47FEF520E6B500D0ED902E03009435E3
S11300D077050080841E080000204E0A000000C836
S11300E00C333333330F986E12831141EF8D211487
S11300F0893BE65516CFFEE6DB18D1844B381BF757
S11301007C1D901DA4BBE424203284725E228100F5
S1130110C9F124ECA1E53D27AE2000B0C800104091
S1130120813FA1A6A83FA4D300D5F0D922DA12DBDF
S1130130208D14AF0D1B1111111F0D1B11111F1F49
S11301400D1B111F1F1F0D1B1F1F1F1F0D1F1F1F07
S11301501F1F0000000000000000002F000000002E
S11301600700070000147F147F1400242A7F2A123A
S11301702313086462000036495522500000050329
S1130180000000001C224100000041221C00001459
S1130190083E08140008083E0808000000A060009B
S11301A0000808080808000060600000002010082B
S11301B00402003E5149453E0000427F4000004297
S11301C061514946002141454B31001814127F10FA
S11301D0002745454539003C4A4949300001710929
S11301E0050300364949493600064949291E0000DD
S11301F03636000000005636000000081422410084
S113020000141414141400004122140800020151B3
S1130210090600324959513E007C1211127C007FBC
S113022049494936003E41414122007F4141221C57
S1130230007F49494941007F09090901003E4149BC
S1130240497A007F0808087F0000417F41000020B0
S113025040413F01007F08142241007F404040405C
S1130260007F020C027F007F0408107F003E4141A2
S1130270413E007F09090906003E4151215E007F8D
S1130280091929460046494949310001017F010104
S1130290003F4040403F001F2040201F003F4038A7
S11302A0403F0063140814630007087008070061E6
S11302B05149454300007F41410000552A552A55C4
S11302C0000041417F00000402010204004040405C
S11302D04040000001020400002054545478007F80
S11302E04844443800384444442000384444487F57
S11302F000385454541800087E0901020018A4A4BC
S1130300A47C007F080404780000447D4000004081
S113031080847D00007F102844000000417F40005D
S1130320007C04180478007C0804047800384444F1
S1130330443800FC242424180018242418FC007CCD
S11303400804040800485454542000043F44402046
S1130350003C4040207C001C2040201C003C4030DD
S1130360403C004428102844001CA0A0A07C004469
S113037064544C4414141414141411241FBECFE5F3
S1130380D2E0DEBFCDBF10E0A0E6B0E0EAEFF8E1D6
S113039002C005900D92AE3AB107D9F720E0AEEA5B
S11303A0B0E001C01D92A83BB207E1F7D5D4A3CABF
S11303B027CEBF92CF92DF92EF92FF920F931F93BB
S11303C0CF93DF93CDB7DEB768970FB6F894DEBF4F
S11303D00FBECDBF53D360E087E75ED388E8ADD3CB
S11303E04DD361E087E758D3CE0101967C016E01BD
S11303F099E1C90ED11C870180E082D3B82E80E038
S11304007FD32B2D30E0322F2227282B322723278E
S11304103227F801219331938F01CE16DF0661F75D
S113042081E06ED332D301E010E0F7016191719164
S11304307F01C80116DA0E5F1F4FE199FECF093123
S1130440110599F768960FB6F894DEBF0FBECDBFBD
S1130450DF91CF911F910F91FF90EF90DF90CF909C
S1130460BF9008950BD360E087E716D380EE65D381
S113047005D360E087E710D386EB5FD306D30895F6
S1130480CF93DF93C82FD62FF9D260E087E704D348
S11304908D2F53D38C2F51D3F8D2DF91CF91089560
S11304A04F925F926F927F928F929F92AF92BF9280
S11304B0CF92DF92EF92FF92CF93DF9364EF85E2C6
S11304C0DFDF83EC99E00197F1F700C00000D6D29A
S11304D060E087E7E1D28AEF30D3D0D261E087E7EA
S11304E0DBD280E00DD3C82ED12CE12CF12CFE2CD4
S11304F0ED2CDC2CCC2480E003D3C82AFE2CED2C7C
S1130500DC2CCC2481E0FCD2C82ABFD281E090E06C
S113051095D92C01612C712C46015701689416F869
S1130520B594A794979487941694D1F7D301C201F4
S1130530880F991FAA1FBB1F881A990AAA0ABB0A07
S113054083E090E07BD9EC01CD2CDE2CEF2CFF2452
S1130550E7FCFA94D701C60184199509A609B709DD
S11305602C013D0185E090E069D97C01A301920151
S1130570C301B201C6D6052E5CE0959587957795A3
S113058067955A95D1F7502D9701FF0C440B550BE5
S1130590B8D66B017C010B2EBEE0F594E794D7949A
S11305A0C794BA95D1F7B02DBE01DD0F880B990B16
S11305B0A5019401A6D6DC01CB01072E7BE0B595FD
S11305C0A795979587957A95D1F7702D8C0D9D1DDC
S11305D0AE1DBF1D8093AE009093AF00A093B000FA
S11305E0B093B1006C017D01CC0CDD1CEE1CFF1C32
S11305F0CC0CDD1CEE1CFF1C8C0D9D1DAE1DBF1D07
S113060080589F4FAF4FBF4F892F9A2FAB2FBB27D7
S1130610A7FDBA95BC01990F880B990BDF91CF9177
S1130620FF90EF90DF90CF90BF90AF909F908F900E
S11306307F906F905F904F9008952F923F924F92CA
S11306405F926F927F928F929F92AF92BF92CF925E
S1130650DF92EF92FF920F931F93CF93DF93CDB767
S1130660DEB72C970FB6F894DEBF0FBECDBF64EF94
S113067085E206DF83EC99E00197F1F700C0000002
S1130680FDD160E087E708D287EF57D2F7D161E068
S113069087E702D280E034D2898380E031D289872F
S11306A081E02ED28A87F1D1C090AE00D090AF0005
S11306B0E090B000F090B100F594E794D794C7941B
S11306C09AEFD91AE108F108C701B6019595879503
S11306D07795679595958795779567959B01AC0177
S11306E010D66D837E838F83988781E190E0A6D8AE
S11306F09C878B878FE090E0A1D88C018DE090E0FF
S11307009DD81C018BE090E099D83C0189E090E0F1
S113071095D82C016D817E818F819885052E5DE0B1
S113072095958795779567955A95D1F7502D9301AF
S1130730770C440B550BE5D54B015C01689412F81A
S1130740B594A794979487941694D1F7B201550C55
S1130750880B990BA7019601D4D52B013C01759404
S1130760679457944794480C591C6A1C7B1C87E077
S113077090E064D89C01032E32E1759467945794F9
S113078047943A95D1F7302DC301B20170588F4F79
S11307909F4F40E050E0B5D52B013C01032E3FE0D4
S11307A075946794579447943A95D1F7302D411432
S11307B051046104710409F43CC1E9858E2F90E071
S11307C0A0E0B0E0F9819F2BBA2FA92F982F88279A
S11307D09C01AD016A85262B29833A834B835C8374
S11307E06D817E818F819885052E5BE09595879537
S11307F0779567955A95D1F7502DEB85FC859F0128
S1130800FF0F440B550B7DD54B015C01B801110F53
S1130810880B990BA701960174D5DC01CB01880FD5
S1130820991FAA1FBB1F880E991EAA1EBB1ED501A5
S1130830C401B595A79597958795B595A79597956F
S113084087954101330CAA08BB08540199248824D4
S1130850880E991EAA1EBB1E072E7CE0B594A79491
S1130860979487947A95D1F7702D89819A81AB8179
S1130870BC81689413F8B595A795979587951694B8
S1130880D1F7880E991EAA1EBB1EB094A094909412
S11308908094811C911CA11CB11CD501C401880F3A
S11308A0991FAA1FBB1F880F991FAA1FBB1F880E61
S11308B0991EAA1EBB1ED501C401880F991FAA1F29
S11308C0BB1F880F991FAA1FBB1F880E991EAA1E43
S11308D0BB1ED501C401880F991FAA1FBB1F880F17
S11308E0991FAA1FBB1F880E991EAA1EBB1ED501E5
S11308F0C401880F991FAA1FBB1F880F991FAA1F25
S1130900BB1F880E991EAA1EBB1ED501C401880FE9
S1130910991FAA1FBB1F880F991FAA1FBB1F880DF1
S1130920991DAA1DBB1DBC01CD01805B9C4399236D
S113093054F0660F771F881F991FA301920106D5F3
S113094049015A0109C0A301920100D549015A0184
S1130950880C991CAA1CBB1C87E190E06FD78C0102
S113096075016401689412F8F694E794D794C794D7
S11309701694D1F785E190E061D79A838983A70122
S11309809601C701B601BDD4052E5DE09695879505
S1130990779567955A95D1F7502D9801110F440B0F
S11309A0550BAFD42B013C01032E3CE075946794A6
S11309B0579447943A95D1F7302DC501B4019695D3
S11309C08795779567959695879577956795E98146
S11309D0FA819F01FF0F440B550B93D4DC01CB012B
S11309E0072E7DE0B595A795979587957A95D1F7CC
S11309F0702D73016201C80ED91EEA1EFB1E83E12D
S1130A0090E01CD7092E000CAA0BBB0B8C0D9D1D6E
S1130A10AE1DBF1D689413F8B595A7959795879556
S1130A201694D1F7BC01CD01680D791D8A1D9B1D5B
S1130A3003C060E070E0CB012C960FB6F894DEBFE3
S1130A400FBECDBFDF91CF911F910F91FF90EF901B
S1130A50DF90CF90BF90AF909F908F907F906F90DA
S1130A605F904F903F902F900895B89ABA9AC09A89
S1130A70C29A0895C29A0000C2980895C09AC29A70
S1130A800000C0980000C2980895C298C098000061
S1130A90C29A0000C09A08951F93CF93DF9300D0A9
S1130AA0CDB7DEB789836A838981883000F1898173
S1130AB08937F8F417E08981880F8983898188232D
S1130AC014F4C09A01C0C098D5DF1150A1F78A81EF
S1130AD0813011F4C09A01C0C098CCDFB898C09A94
S1130AE086B3182F1170C6DFB89A812F03C082E035
S1130AF001C082E00F900F90DF91CF911F91089574
S1130B001F93CF93DF93182FC09AB898C09AD8E058
S1130B10C0E0C29A86B38170CC0FC82BABDFD15032
S1130B20C1F7B89A113011F4C09A01C0C098A2DF7D
S1130B308C2FDF91CF911F910895CF93DF93D82FFE
S1130B40C8E0DD2314F4C09A01C0C09893DFDD0F20
S1130B50C150B9F7C09A8EDFDF91CF9108950F93FA
S1130B601F93CF93DF9300D000D01F92CDB7DEB791
S1130B708E010F5F1F4F22E044E00AD4C80194D1D4
S1130B800F900F900F900F900F90DF91CF911F91C6
S1130B900F9108954F925F926F927F928F929F92DE
S1130BA0AF92BF92CF92DF92EF92FF9279DC45DD54
S1130BB04B015C0161E080E006D18FE790E074D1E5
S1130BC0C3D1C2D1CCDF8DE890E06ED163E080E088
S1130BD0FAD080E990E068D184D1C1DF8BE990E05C
S1130BE063D165E080E0EFD08FE990E05DD1C5018D
S1130BF0B40128EE33E040E050E0A8D32B013C01DF
S1130C00822F60D10F2EF4E6CF2ED12CE12CF12CC3
S1130C10F02DC301B201A701960198D3822F52D1BE
S1130C208EE209D1C501B401A70196018FD36B01EE
S1130C307C018AE0C816D104E104F10410F480E3D5
S1130C40FAD08C2D3FD18AEA90E02ED1FF90EF901C
S1130C50DF90CF90BF90AF909F908F907F906F90D8
S1130C605F904F9008950F931F93CF93DF93369A1D
S1130C703699FECF60E089E7A6D085B18F3F09F0B1
S1130C8085B185B1853D28F485B1813C20F083E0B0
S1130C9003C084E001C084E095B1903C20F495B198
S1130CA09C3A08F082E095B19B3A20F495B19739CB
S1130CB008F081E095B1963908F480E0082F10E03F
S1130CC0080F111D080F111D000F111FE801CC5C46
S1130CD0DE4F065C1E4FFE0184918AD02196C01718
S1130CE0D107C9F7DF91CF911F910F91089582E049
S1130CF087B93D9A80E886B9329A319A08951F924D
S1130D000F920FB60F9211248F930FB6F894A895F3
S1130D1081B5886181BD11BC0FBE8F910F900FBE4C
S1130D200F901F90189516B884B7877F84BF81B53C
S1130D30886181BD86E481BD7894A89585B7877E56
S1130D40806185BF85B7806285BF889585B78F7DB3
S1130D5085BF80E886B9089587EA91E60197F1F79F
S1130D6000C00000BC9A8FEE88BBC1DF7EDEC8E104
S1130D70D1E004E311E0FE01849118D02196C0175C
S1130D80D107C9F780E090E051D58F3F29F411DBFA
S1130D9060E080E090E057D565DB81E807D08FEF15
S1130DA005D033D060DFF6DEBEDFFCCFCF93C82F93
S1130DB065DE60E08CE370DE80E0BFDE8C2FBDDE9C
S1130DC064DECF910895CF93DF93D82FC62F81E2AD
S1130DD0EDDF8D2F8F77EADF8FE7E8DF82E2E6DF52
S1130DE08C2F8770E3DF87E0E1DFDF91CF910895F7
S1130DF0CF93C82F43DE60E08CE34EDE80E49DDEBB
S1130E008C2F9BDE42DECF910895CF93DF9360E079
S1130E1080E0D9DFD8E007C080E0EADFCF5FC038E8
S1130E20D9F7D15011F0C0E0F7CF60E080E0CBDF1C
S1130E30DF91CF9108950F931F93CF93DF93C82F22
S1130E408A3089F46091B600683030F46F5F609343
S1130E50B60080E0B8DF23C081E08093B60061E093
S1130E6080E0B1DF1CC00ADE60E08CE315DE80E4C4
S1130E7064DEC0520C2F10E00C0F111D0C0F111D5D
S1130E80000F111FE801CE5ADE4F085A1E4FFE0113
S1130E90849153DE2196C017D107C9F7F6DDDF919F
S1130EA0CF911F910F910895CF93DF93EC01888127
S1130EB0882329F02196BFDF89918111FCCFDF912E
S1130EC0CF910895CF93DF9385D0EC018881882357
S1130ED029F02196B0DF89918111FCCFDF91CF9168
S1130EE00895CF93DF93CADD60E080E4D5DD85EF1C
S1130EF024DE87EA91E60197F1F700C00000BEDD29
S1130F0061E080E4C9DD80E0FBDDC82FD0E0DC2FA8
S1130F10CC2781E0F5DDC82BB8DDBE016C7F80E015
S1130F2090E0F6D020E030E040E857E37FD120E0C5
S1130F3030E04AEF52E47AD120E030E040EC50E473
S1130F4082D0DF91CF910895CF93DF9397DD60E056
S1130F5080E4A2DD83EFF1DD87EA91E60197F1F702
S1130F6000C000008BDD61E080E496DD80E0C8DD38
S1130F70C82FD0E0DC2FCC2781E0C2DDC82B85DD73
S1130F80BE016C7F80E090E0C3D020E030E040E818
S1130F9057E34CD122E538EB4FE253E447D126E640
S1130FA036E64BE352E44FD0DF91CF9108959C0194
S1130FB0662379F090E0D901A90FB11D8C91F90154
S1130FC0E60FF11D40814C9380839F5F615096171B
S1130FD090F30895CF93DF93282F6AE0ABD1905D0F
S1130FE09093B2002A30D8F409C0EA01822F6A2F04
S1130FF0A1D1905D91932A3040F403C0C0E0D0E0C9
S113100030E0CE54DF4F198215C0822F6A2F92D15F
S1131010282F3F5F4F5F5F4F343039F70BC0822F6B
S11310206AE088D1282FE3EBF0E041E050E031E0C2
S1131030AAE0DBCF632F82EB90E0B9DF82EB90E094
S1131040DF91CF9108955058BB27AA270ED0B4C082
S1131050A5D030F0AAD020F031F49F3F11F41EF453
S11310609AC00EF4E095E7FB90C0E92FB6D080F368
S1131070BA17620773078407950718F071F49EF591
S1131080CEC00EF4E0950B2EBA2FA02D0B01B901A2
S113109090010C01CA01A0011124FF27591B99F0EA
S11310A0593F50F4503E68F11A16F040A22F232FF6
S11310B0342F4427585FF3CF469537952795A79546
S11310C0F0405395C9F77EF41F16BA0B620B730BED
S11310D0840BBAF09150A1F0FF0FBB1F661F771F5E
S11310E0881FC2F70EC0BA0F621F731F841F48F413
S11310F0879577956795B795F7959E3F08F0B3CF99
S11311009395880F08F09927EE0F97958795089582
S1131110E89409C097FB3EF490958095709561958D
S11311207F4F8F4F9F4F9923A9F0F92F96E9BB2743
S11311309395F695879577956795B795F111F8CFBF
S1131140FAF4BB0F11F460FF1BC06F5F7F4F8F4F2A
S11311509F4F16C0882311F096E911C0772321F020
S11311609EE8872F762F05C0662371F096E8862FB8
S113117070E060E02AF09A95660F771F881FDAF70F
S1131180880F9695879597F9089597F99F6780E852
S113119070E060E008959FEF80EC089500240A94C5
S11311A01616170618060906089500240A9412163E
S11311B01306140605060895092E0394000C11F471
S11311C0882352F0BB0F40F4BF2B11F460FF04C01E
S11311D06F5F7F4F8F4F9F4F089557FD9058440F77
S11311E0551F59F05F3F71F04795880F97FB991F82
S11311F061F09F3F79F0879508951216130614063F
S1131200551FF2CF4695F1DF08C0161617061806CB
S1131210991FF1CF86957105610508940895E894A6
S1131220BB2766277727CB0197F908950AD0C4CF47
S1131230B5DF28F0BADF18F0952309F0A6CFABCFBD
S1131240EFCFCBDFA8F39923D9F35523C9F3950F37
S113125050E0551FAA27EE27FF27BB270024089438
S1131260679520F4E20FF31FB41F0A1E220F331FE9
S1131270441FAA1F6695A9F7779530F4F30FB41F9E
S11312800A1E121E08F46395330F441FAA1F221F5F
S1131290769599F7879520F4B40F0A1E121E631FE2
S11312A0440FAA1F221F331F8695A9F7862F712D7D
S11312B0602D11249F5750408AF0E1F088234AF0B2
S11312C0EE0FFF1FBB1F661F771F881F91505040F2
S11312D0A9F79E3F510570F058CFA2CF5F3FECF3C2
S11312E0983EDCF3869577956795B795F795E795DE
S11312F09F5FC1F7FE2B880F911D9695879597F9EF
S11313000895EE27FF27AA27BB2708C0A20FB31F03
S1131310E41FF51F220F331F441F551F9695879511
S11313207795679598F37040A9F7009799F7BD01F1
S1131330CF010895991B79E004C0991F961708F00E
S1131340961B881F7A95C9F780950895A1E21A2EF5
S1131350AA1BBB1BFD010DC0AA1FBB1FEE1FFF1F55
S1131360A217B307E407F50720F0A21BB30BE40BA5
S1131370F50B661F771F881F991F1A9469F76095EC
S11313807095809590959B01AC01BD01CF010895A6
S1131390EF920F931F93CF93DF93E80147FD02C0B1
S11313A034E001C034E1042E000C550B57FF03C098
S11313B0519541955109E32E022F242FAE0107D0F8
S11313C0CE01DF91CF911F910F91EF900895A9E085
S11313D0B0E0ECEEF9E05EC26A01122FB02E2BE30E
S11313E0201720F0FF24F394F00E02C02CE3F22E19
S11313F00F2D27E0AE014F5F5F4F40D1BC01498103
S1131400842F8970813031F0E1FC06C0E0FE06C013
S113141090E205C09DE203C09BE201C090E05E2D16
S1131420507143FF3CC0911102C083E001C084E0CD
S1131430811718F4212F281B01C020E051110BC083
S1131440F601822F30E2882319F031938150FBCFCB
S1131450C20ED11C20E0992329F0D6019C93F601F9
S113146031966F01C6010396E2FE0AC03EE4D6013E
S11314703C9341E411964C93119712963C9306C009
S11314803EE6F601308341E641833283FC01322F8C
S113149040E2332309F442C041933150FACF42FF72
S11314A044C0911102C083E001C084E0811718F4A4
S11314B0212F281B01C020E051110BC0F601822FFF
S11314C030E2882319F031938150FBCFC20ED11C36
S11314D020E0992329F0D6019C93F60131966F01FF
S11314E0C6010396E2FE0BC039E4D6013C933EE408
S11314F011963C93119736E412963C9307C039E653
S1131500F60130833EE6318336E63283FC01322F26
S113151040E2332319F041933150FBCFFC01E20F39
S1131520F11D10828EEF9FEFA6C021E030E09111F3
S113153002C020E030E0161617061CF4FB013196B9
S113154002C0E1E0F0E02E0F3F1FBB2021F0EB2DA5
S1131550F0E0319602C0E0E0F0E02E0F3F1FE12FF3
S1131560F0E02E173F071CF4121B212F01C020E0CE
S11315708E2D887159F4F601822F30E2882319F0F8
S113158031938150FBCFC20ED11C20E0992329F066
S1131590D6019C93F60131966F0151110BC0F601EF
S11315A0822F90E3882319F091938150FBCFC20ED0
S11315B0D11C20E00F2D060F9A81342F307144FF87
S11315C003C0913309F40150101624F4093018F0C3
S11315D008E001C001E0AB0177FF02C040E050E049
S11315E0FB01E41BF50BA1E0B0E0AC0FBD1FEA0F5B
S11315F0FB1F8EE2A82E4B01801A91080B2D10E0E0
S11316001195019511094F3FBFEF5B0721F4D601F6
S1131610AC9211966D01641775072CF0841695062B
S113162014F4818101C080E3415051093196D601FF
S113163011967D014017510724F0D6018C93670160
S1131640E2CF6417750739F4963320F4953319F40F
S1131650311101C081E3F6018083F701822F90E20A
S1131660882319F091938150FBCFF701E20FF11D0C
S1131670108280E090E02996ECE028C1283008F040
S113168027E03327DA01990F311D87FD9160009619
S11316906105710539F432602E5F3D9330E32A957C
S11316A0E1F708959F3F30F080387105610509F036
S11316B03C5F3C5F3D93913008F08068911DDF935F
S11316C0CF931F930F93FF92EF92192F987F9695C4
S11316D0E92F96959695E90FFF27E858FF4F99272C
S11316E03327EE24FF24A701E7010590089407940B
S11316F028F4360FE71EF81E491F511D660F771F89
S1131700881F991F0694A1F70590079428F4E70E03
S1131710F81E491F561FC11D770F881F991F661F8A
S11317200694A1F70590079428F4F80E491F561F54
S1131730C71FD11D880F991F661F771F0694A1F735
S11317400590079420F4490F561FC71FD81F990FFF
S1131750661F771F881F0694A9F784911095177048
S113176041F0D695C79557954795F794E7941A9500
S1131770C1F7EEE1F0E0689415901591359165910B
S1131780959105907FE27395E118F10A430B560B8E
S1131790C90BD009C0F7E10CF11E431F561FC91F26
S11317A0D01D7EF4703311F48A95E6CFE89401508D
S11317B030F0080F0AF40027021708F4202F2395AD
S11317C0022F7A3328F079E37D932A95E9F710C044
S11317D07D932A9589F6069497956795379517957D
S11317E01794E118F10A430B560BC90BD00998F072
S11317F023957E9173957A3308F070E37C932013DC
S1131800B8F77E9170617D9330F0839571E37D9399
S113181070E32A95E1F71124EF90FF900F911F9147
S1131820CF91DF91992787FD90950895E199FECF97
S11318309FBB8EBBE09A99278DB30895A8E1B0E0D1
S113184042E050E013C0262FE199FECF1CBA9FBBA3
S11318508EBB2DBB0FB6F894E29AE19A0FBE0196A7
S11318600895F1DF272FF0CFDC01CB01FC01E199D2
S1131870FECF06C0FFBBEEBBE09A31960DB20D92CF
S113188041505040B8F708952F923F924F925F9283
S11318906F927F928F929F92AF92BF92CF92DF927C
S11318A0EF92FF920F931F93CF93DF93CDB7DEB7E1
S11318B0CA1BDB0B0FB6F894DEBF0FBECDBF099475
S11318C02A88398848885F846E847D848C849B84CC
S11318D0AA84B984C884DF80EE80FD800C811B81DA
S11318E0AA81B981CE0FD11D0FB6F894DEBF0FBE09
S10D18F0CDBFED010895F894FFCF79
S11318FA4D6174746865772057686974656C657995
S113190A00312E30300031392E31302E3138005426
S113191A656D70657261747572653A20002A4300B8
S113192A48756D69646974793A20002552480050F3
S111193A726573737572653A2000485061003F
S9030000FC
