S01E000068616E6468656C645765617468657253746174696F6E2E737265631C
S113000030C14AC149C148C147C146C145C144C1C3
S113001043C142C141C140C13FC13EC13DC1AE2007
S113002000B0C8001040813FA1A6A83FA4D300D5CA
S1130030F0D922DA12DB208D14AF0000000000009A
S11300400000002F000000000700070000147F14C8
S11300507F1400242A7F2A120062640813230036C6
S11300604955225000000503000000001C224100F5
S1130070000041221C000014083E08140008083E39
S11300800808000000A06000000808080808000034
S113009060600000002010080402003E5149453E03
S11300A00000427F40000042615149460021414521
S11300B04B31001814127F10002745454539003C88
S11300C04A49493000017109050300364949493656
S11300D000064949291E0000363600000000563645
S11300E00000000814224100001414141414000029
S11300F04122140800020151090600324959513EB7
S1130100007C1211127C007F49494936003E41416E
S11301104122007F4141221C007F49494941007F1F
S113012009090901003E4149497A007F0808087F0E
S11301300000417F4100002040413F01007F08143E
S11301402241007F40404040007F020C027F007F3C
S11301500408107F003E4141413E007F0909090621
S1130160003E4151215E007F091929460046494954
S113017049310001017F0101003F4040403F001F21
S11301802040201F003F4038403F006314081463A0
S113019000070870080700615149454300007F418A
S11301A0410000552A552A55000041417F000004B2
S11301B002010204004040404040000001020400EB
S11301C0002054545478007F484444380038444450
S11301D0442000384444487F0038545454180008DC
S11301E07E0901020018A4A4A47C007F08040478FA
S11301F00000447D4000004080847D00007F102882
S113020044000000417F4000007C04180478007C16
S11302100804047800384444443800FC2424241896
S11302200018242418FC007C0804040800485454D2
S1130230542000043F444020003C4040207C001CEB
S11302402040201C003C4030403C004428102844FE
S1130250001CA0A0A07C004464544C441414141446
S1130260141411241FBECFE5D2E0DEBFCDBF10E0D1
S1130270A0E6B0E0EEE7F7E002C005900D92A236EA
S1130280B107D9F710E0A2E6B0E001C01D92A43690
S1130290B107E1F79FD171C2B3CE0F931F93082F1B
S11302A0162F8FD087E760E0B6D0812F58D1802FEA
S11302B056D19CD01F910F91089583D087E760E0B9
S11302C0AAD080EE4CD17DD087E760E0A4D086EB45
S11302D046D18CD00895CF92DF92EF92FF920F9384
S11302E01F93DF93CF93CDB7DEB768970FB6F8941B
S11302F0DEBF0FBECDBF65D087E760E08CD088E855
S11303002ED15FD087E761E086D08E010F5F1F4F4B
S11303100F2EF8E1EF2EFF24F02DEC0EFD1E80E0F1
S1130320D6D0F80181938F01EE15FF05C1F781E066
S1130330CED0898F5BD001E010E06E010894C11C1F
S1130340D11C0F2EFCE3EF2EFF24F02DF601E00F5D
S1130350F11FC801608103D2F701808181FDFCCFC8
S11303600F5F1F4F0931110589F768960FB6F8948E
S1130370DEBF0FBECDBFCF91DF911F910F91FF90D4
S1130380EF90DF90CF900895E7E3F0E08081816003
S11303908083808184608083E8E3F0E080818160F1
S11303A080838081846080830895E8E3F0E0808125
S11303B08460808383E08A95F1F780818B7F8083DA
S11303C00895E8E3F0E08081816080838081846027
S11303D0808393E0892F8A95F1F780818E7F8083D3
S11303E09A95F1F780818B7F80830895E8E3F0E0AC
S11303F080818B7F808380818E7F808393E0892FAF
S11304008A95F1F78081846080839A95F1F78081E1
S1130410816080830895EF92FF920F931F93DF937F
S1130420CF9300D0CDB7DEB789836A8389818830C2
S113043008F442C08981893708F03EC007E00F2ED6
S1130440F8E3EF2EFF24F02D8981880F89838981B9
S113045088232CF4F70180818160808304C0F70134
S113046080818E7F8083A1DF015071F78A81813082
S113047031F4E8E3F0E080818160808305C0E8E343
S1130480F0E080818E7F808390DF0F2EF7E3EF2EE4
S1130490FF24F02DF70180818E7F8083E8E3F0E074
S11304A080818160808386B3182F11707EDFF7010D
S11304B080818160808301C012E0812F0F900F90B2
S11304C0CF91DF911F910F91FF90EF900895DF92EC
S11304D0EF92FF920F931F93CF93DF93D82EE8E30D
S11304E0F0E0808181608083A7E3B0E08C918E7F0F
S11304F08C9380818160808318E000E0C8E3D0E0C1
S11305000F2EF6E3EF2EFF24F02D8881846088837C
S1130510F7018081902F990F8170092F082B45DFF7
S1130520115099F7E7E3F0E0808181608083F1E086
S1130530DF1631F4E8E3F0E080818160808305C058
S1130540E8E3F0E080818E7F80832FDF802FDF91CE
S1130550CF911F910F91FF90EF90DF9008950F932B
S11305601F93CF93DF93082F18E0C8E3D0E0002354
S113057024F488818160888303C088818E7F888386
S113058014DF115011F0000FF2CFE8E3F0E08081A6
S1130590816080830ADFDF91CF911F910F910895CD
S11305A0E8E3F0E080818061808320E533ECC901D9
S11305B00197F1F780818F7E8083C9010197F1F75C
S11305C0808180618083C9010197F1F780818F7EEA
S11305D0808308950F931F93CF93DF93E7E3F0E0B5
S11305E0808180618083D0DEDBDF80E690E0A1D073
S11305F0CEE1D0E00AE310E0FE01849128D02196F8
S1130600C017D107C9F780E090E0A1D08F3F29F44B
S113061062DE80E090E060E0A2D039D080E060E06B
S113062023D04BDE84E665EF38DE8FEF64EF35DEF2
S1130630B7DFFECF1F93182FC4DE8CE360E0EBDE40
S113064080E48DDF812F8BDFD1DE1F9108951F930E
S1130650182FB7DE8CE360E0DEDE80E080DF812FE0
S11306607EDFC4DE1F9108950F931F93182F062F6A
S113067081E2EDDF812FEBDF8FE7E9DF82E2E7DF65
S1130680802FE5DF87E0E3DF1F910F910895FF924C
S11306900F931F9380E060E0E7DFFF2400E010C0C9
S11306A0802FC8DF1F5F1038D9F7F39488E0F8165D
S11306B039F480E060E0D8DF1F910F91FF90089536
S11306C0102FEECF1F93CF93DF93182F8A3089F426
S11306D060916200683030F46F5F6093620080E084
S11306E0C3DF23C081E08093620080E061E0BCDF6F
S11306F01CC067DE8CE360E08EDE80E430DF212FF7
S1130700205230E0C901880F991F820F931F880F70
S1130710991FEC01C65CDF4F10E0FE0184911FDFDE
S11307201F5F21961630C9F761DEDF91CF911F91CB
S11307300895CF93DF93EC018881882329F02196D3
S1130740C1DF88818823D9F7DF91CF910895E1999A
S1130750FECF9FBB8EBBE09A99278DB30895262FB9
S1130760E199FECF1CBA9FBB8EBB2DBB0FB6F8948C
S1110770E29AE19A0FBE01960895F894FFCF25
S105077E0A006B
S9030000FC
